{
  "contractName": "assonline",
  "abi": [
    {
      "inputs": [],
      "stateMutability": "nonpayable",
      "type": "constructor"
    },
    {
      "anonymous": false,
      "inputs": [
        {
          "indexed": true,
          "internalType": "address",
          "name": "owner",
          "type": "address"
        },
        {
          "indexed": true,
          "internalType": "address",
          "name": "approved",
          "type": "address"
        },
        {
          "indexed": true,
          "internalType": "uint256",
          "name": "tokenId",
          "type": "uint256"
        }
      ],
      "name": "Approval",
      "type": "event"
    },
    {
      "anonymous": false,
      "inputs": [
        {
          "indexed": true,
          "internalType": "address",
          "name": "owner",
          "type": "address"
        },
        {
          "indexed": true,
          "internalType": "address",
          "name": "operator",
          "type": "address"
        },
        {
          "indexed": false,
          "internalType": "bool",
          "name": "approved",
          "type": "bool"
        }
      ],
      "name": "ApprovalForAll",
      "type": "event"
    },
    {
      "anonymous": false,
      "inputs": [
        {
          "indexed": true,
          "internalType": "address",
          "name": "previousOwner",
          "type": "address"
        },
        {
          "indexed": true,
          "internalType": "address",
          "name": "newOwner",
          "type": "address"
        }
      ],
      "name": "OwnershipTransferred",
      "type": "event"
    },
    {
      "anonymous": false,
      "inputs": [
        {
          "indexed": true,
          "internalType": "address",
          "name": "from",
          "type": "address"
        },
        {
          "indexed": true,
          "internalType": "address",
          "name": "to",
          "type": "address"
        },
        {
          "indexed": true,
          "internalType": "uint256",
          "name": "tokenId",
          "type": "uint256"
        }
      ],
      "name": "Transfer",
      "type": "event"
    },
    {
      "inputs": [],
      "name": "BaseURI",
      "outputs": [
        {
          "internalType": "string",
          "name": "",
          "type": "string"
        }
      ],
      "stateMutability": "view",
      "type": "function",
      "constant": true
    },
    {
      "inputs": [
        {
          "internalType": "address",
          "name": "to",
          "type": "address"
        },
        {
          "internalType": "uint256",
          "name": "tokenId",
          "type": "uint256"
        }
      ],
      "name": "approve",
      "outputs": [],
      "stateMutability": "nonpayable",
      "type": "function"
    },
    {
      "inputs": [
        {
          "internalType": "address",
          "name": "owner",
          "type": "address"
        }
      ],
      "name": "balanceOf",
      "outputs": [
        {
          "internalType": "uint256",
          "name": "",
          "type": "uint256"
        }
      ],
      "stateMutability": "view",
      "type": "function",
      "constant": true
    },
    {
      "inputs": [],
      "name": "betaSupply",
      "outputs": [
        {
          "internalType": "uint256",
          "name": "",
          "type": "uint256"
        }
      ],
      "stateMutability": "view",
      "type": "function",
      "constant": true
    },
    {
      "inputs": [
        {
          "internalType": "uint256",
          "name": "tokenId",
          "type": "uint256"
        }
      ],
      "name": "getApproved",
      "outputs": [
        {
          "internalType": "address",
          "name": "",
          "type": "address"
        }
      ],
      "stateMutability": "view",
      "type": "function",
      "constant": true
    },
    {
      "inputs": [
        {
          "internalType": "address",
          "name": "owner",
          "type": "address"
        },
        {
          "internalType": "address",
          "name": "operator",
          "type": "address"
        }
      ],
      "name": "isApprovedForAll",
      "outputs": [
        {
          "internalType": "bool",
          "name": "",
          "type": "bool"
        }
      ],
      "stateMutability": "view",
      "type": "function",
      "constant": true
    },
    {
      "inputs": [],
      "name": "name",
      "outputs": [
        {
          "internalType": "string",
          "name": "",
          "type": "string"
        }
      ],
      "stateMutability": "view",
      "type": "function",
      "constant": true
    },
    {
      "inputs": [],
      "name": "owner",
      "outputs": [
        {
          "internalType": "address",
          "name": "",
          "type": "address"
        }
      ],
      "stateMutability": "view",
      "type": "function",
      "constant": true
    },
    {
      "inputs": [
        {
          "internalType": "uint256",
          "name": "tokenId",
          "type": "uint256"
        }
      ],
      "name": "ownerOf",
      "outputs": [
        {
          "internalType": "address",
          "name": "",
          "type": "address"
        }
      ],
      "stateMutability": "view",
      "type": "function",
      "constant": true
    },
    {
      "inputs": [],
      "name": "renounceOwnership",
      "outputs": [],
      "stateMutability": "nonpayable",
      "type": "function"
    },
    {
      "inputs": [
        {
          "internalType": "address",
          "name": "from",
          "type": "address"
        },
        {
          "internalType": "address",
          "name": "to",
          "type": "address"
        },
        {
          "internalType": "uint256",
          "name": "tokenId",
          "type": "uint256"
        }
      ],
      "name": "safeTransferFrom",
      "outputs": [],
      "stateMutability": "nonpayable",
      "type": "function"
    },
    {
      "inputs": [
        {
          "internalType": "address",
          "name": "from",
          "type": "address"
        },
        {
          "internalType": "address",
          "name": "to",
          "type": "address"
        },
        {
          "internalType": "uint256",
          "name": "tokenId",
          "type": "uint256"
        },
        {
          "internalType": "bytes",
          "name": "_data",
          "type": "bytes"
        }
      ],
      "name": "safeTransferFrom",
      "outputs": [],
      "stateMutability": "nonpayable",
      "type": "function"
    },
    {
      "inputs": [],
      "name": "saleOpen",
      "outputs": [
        {
          "internalType": "bool",
          "name": "",
          "type": "bool"
        }
      ],
      "stateMutability": "view",
      "type": "function",
      "constant": true
    },
    {
      "inputs": [
        {
          "internalType": "address",
          "name": "operator",
          "type": "address"
        },
        {
          "internalType": "bool",
          "name": "approved",
          "type": "bool"
        }
      ],
      "name": "setApprovalForAll",
      "outputs": [],
      "stateMutability": "nonpayable",
      "type": "function"
    },
    {
      "inputs": [
        {
          "internalType": "bytes4",
          "name": "interfaceId",
          "type": "bytes4"
        }
      ],
      "name": "supportsInterface",
      "outputs": [
        {
          "internalType": "bool",
          "name": "",
          "type": "bool"
        }
      ],
      "stateMutability": "view",
      "type": "function",
      "constant": true
    },
    {
      "inputs": [],
      "name": "symbol",
      "outputs": [
        {
          "internalType": "string",
          "name": "",
          "type": "string"
        }
      ],
      "stateMutability": "view",
      "type": "function",
      "constant": true
    },
    {
      "inputs": [],
      "name": "tokenSupply",
      "outputs": [
        {
          "internalType": "uint256",
          "name": "",
          "type": "uint256"
        }
      ],
      "stateMutability": "view",
      "type": "function",
      "constant": true
    },
    {
      "inputs": [
        {
          "internalType": "uint256",
          "name": "tokenId",
          "type": "uint256"
        }
      ],
      "name": "tokenURI",
      "outputs": [
        {
          "internalType": "string",
          "name": "",
          "type": "string"
        }
      ],
      "stateMutability": "view",
      "type": "function",
      "constant": true
    },
    {
      "inputs": [
        {
          "internalType": "address",
          "name": "from",
          "type": "address"
        },
        {
          "internalType": "address",
          "name": "to",
          "type": "address"
        },
        {
          "internalType": "uint256",
          "name": "tokenId",
          "type": "uint256"
        }
      ],
      "name": "transferFrom",
      "outputs": [],
      "stateMutability": "nonpayable",
      "type": "function"
    },
    {
      "inputs": [
        {
          "internalType": "address",
          "name": "newOwner",
          "type": "address"
        }
      ],
      "name": "transferOwnership",
      "outputs": [],
      "stateMutability": "nonpayable",
      "type": "function"
    },
    {
      "inputs": [
        {
          "internalType": "string",
          "name": "phrase",
          "type": "string"
        }
      ],
      "name": "mint_assmail",
      "outputs": [
        {
          "internalType": "uint256",
          "name": "",
          "type": "uint256"
        }
      ],
      "stateMutability": "payable",
      "type": "function",
      "payable": true
    },
    {
      "inputs": [
        {
          "internalType": "string",
          "name": "phrase",
          "type": "string"
        },
        {
          "internalType": "address",
          "name": "receiver",
          "type": "address"
        }
      ],
      "name": "mint_dirtythirty",
      "outputs": [
        {
          "internalType": "uint256",
          "name": "",
          "type": "uint256"
        }
      ],
      "stateMutability": "nonpayable",
      "type": "function"
    },
    {
      "inputs": [],
      "name": "totalSupply",
      "outputs": [
        {
          "internalType": "uint256",
          "name": "",
          "type": "uint256"
        }
      ],
      "stateMutability": "view",
      "type": "function",
      "constant": true
    },
    {
      "inputs": [
        {
          "internalType": "string",
          "name": "dropURI",
          "type": "string"
        }
      ],
      "name": "updateURI",
      "outputs": [],
      "stateMutability": "nonpayable",
      "type": "function"
    },
    {
      "inputs": [
        {
          "internalType": "string",
          "name": "phrase",
          "type": "string"
        }
      ],
      "name": "get_ID",
      "outputs": [
        {
          "internalType": "uint256",
          "name": "",
          "type": "uint256"
        }
      ],
      "stateMutability": "view",
      "type": "function",
      "constant": true
    },
    {
      "inputs": [
        {
          "internalType": "uint256",
          "name": "tokenID",
          "type": "uint256"
        }
      ],
      "name": "get_phrase",
      "outputs": [
        {
          "internalType": "string",
          "name": "",
          "type": "string"
        }
      ],
      "stateMutability": "view",
      "type": "function",
      "constant": true
    },
    {
      "inputs": [],
      "name": "toggle_sale",
      "outputs": [],
      "stateMutability": "nonpayable",
      "type": "function"
    },
    {
      "inputs": [
        {
          "internalType": "uint256",
          "name": "newLimit",
          "type": "uint256"
        }
      ],
      "name": "raiseSoftLimit",
      "outputs": [],
      "stateMutability": "nonpayable",
      "type": "function"
    },
    {
      "inputs": [],
      "name": "withdraw",
      "outputs": [],
      "stateMutability": "nonpayable",
      "type": "function"
    }
  ],
  "bytecode": "0x6080604052612710600a556064600b556040518060600160405280602681526020016200485560269139600c90805190602001906200004092919062000292565b506000600d60006101000a81548160ff0219169083151502179055503480156200006957600080fd5b506040518060400160405280600781526020017f4173736d61696c000000000000000000000000000000000000000000000000008152506040518060400160405280600381526020017f41444300000000000000000000000000000000000000000000000000000000008152508160009080519060200190620000ee92919062000292565b5080600190805190602001906200010792919062000292565b5050506200012a6200011e620001c460201b60201c565b620001cc60201b60201c565b612be5600e6040516200013d906200039d565b90815260200160405180910390208190555061271d600e604051620001629062000404565b9081526020016040518091039020819055506128da600e60405162000187906200046b565b908152602001604051809103902081905550612c73600e604051620001ac90620004d2565b9081526020016040518091039020819055506200054e565b600033905090565b6000600760009054906101000a900473ffffffffffffffffffffffffffffffffffffffff16905081600760006101000a81548173ffffffffffffffffffffffffffffffffffffffff021916908373ffffffffffffffffffffffffffffffffffffffff1602179055508173ffffffffffffffffffffffffffffffffffffffff168173ffffffffffffffffffffffffffffffffffffffff167f8be0079c531659141344cd1fd0a4f28419497f9722a3daafe3b4186f6b6457e060405160405180910390a35050565b828054620002a09062000518565b90600052602060002090601f016020900481019282620002c4576000855562000310565b82601f10620002df57805160ff191683800117855562000310565b8280016001018555821562000310579182015b828111156200030f578251825591602001919060010190620002f2565b5b5090506200031f919062000323565b5090565b5b808211156200033e57600081600090555060010162000324565b5090565b600081905092915050565b7f746f6d0000000000000000000000000000000000000000000000000000000000600082015250565b60006200038560038362000342565b915062000392826200034d565b600382019050919050565b6000620003aa8262000376565b9150819050919050565b7f6d72686f75736500000000000000000000000000000000000000000000000000600082015250565b6000620003ec60078362000342565b9150620003f982620003b4565b600782019050919050565b60006200041182620003dd565b9150819050919050565b7f7068617474657374000000000000000000000000000000000000000000000000600082015250565b60006200045360088362000342565b915062000460826200041b565b600882019050919050565b6000620004788262000444565b9150819050919050565b7f68656c7000000000000000000000000000000000000000000000000000000000600082015250565b6000620004ba60048362000342565b9150620004c78262000482565b600482019050919050565b6000620004df82620004ab565b9150819050919050565b7f4e487b7100000000000000000000000000000000000000000000000000000000600052602260045260246000fd5b600060028204905060018216806200053157607f821691505b60208210811415620005485762000547620004e9565b5b50919050565b6142f7806200055e6000396000f3fe6080604052600436106101c25760003560e01c8063715018a6116100f7578063bf2a13df11610095578063e985e9c511610064578063e985e9c514610640578063ef2125fb1461067d578063f2fde38b146106ad578063ffcc43c4146106d6576101c2565b8063bf2a13df14610574578063c30f4a5a146105b1578063c87b56dd146105da578063d6baa5e914610617576101c2565b806395d89b41116100d157806395d89b41146104cc57806399288dbb146104f7578063a22cb46514610522578063b88d4fde1461054b576101c2565b8063715018a61461045f5780637824407f146104765780638da5cb5b146104a1576101c2565b806323b872dd1161016457806342842e0e1161013e57806342842e0e1461037f5780635c39563d146103a85780636352211e146103e557806370a0823114610422576101c2565b806323b872dd1461032857806336c1c6e5146103515780633ccfd60b14610368576101c2565b8063095ea7b3116101a0578063095ea7b31461026c5780630d00e1be1461029557806318160ddd146102c05780631a4f6b09146102eb576101c2565b806301ffc9a7146101c757806306fdde0314610204578063081812fc1461022f575b600080fd5b3480156101d357600080fd5b506101ee60048036038101906101e99190612a9d565b610701565b6040516101fb9190612ae5565b60405180910390f35b34801561021057600080fd5b506102196107e3565b6040516102269190612b99565b60405180910390f35b34801561023b57600080fd5b5061025660048036038101906102519190612bf1565b610875565b6040516102639190612c5f565b60405180910390f35b34801561027857600080fd5b50610293600480360381019061028e9190612ca6565b6108fa565b005b3480156102a157600080fd5b506102aa610a12565b6040516102b79190612cf5565b60405180910390f35b3480156102cc57600080fd5b506102d5610a18565b6040516102e29190612cf5565b60405180910390f35b3480156102f757600080fd5b50610312600480360381019061030d9190612e45565b610a3d565b60405161031f9190612cf5565b60405180910390f35b34801561033457600080fd5b5061034f600480360381019061034a9190612ea1565b610c78565b005b34801561035d57600080fd5b50610366610cd8565b005b34801561037457600080fd5b5061037d610d80565b005b34801561038b57600080fd5b506103a660048036038101906103a19190612ea1565b610e4b565b005b3480156103b457600080fd5b506103cf60048036038101906103ca9190612bf1565b610e6b565b6040516103dc9190612b99565b60405180910390f35b3480156103f157600080fd5b5061040c60048036038101906104079190612bf1565b610f8c565b6040516104199190612c5f565b60405180910390f35b34801561042e57600080fd5b5061044960048036038101906104449190612ef4565b61103e565b6040516104569190612cf5565b60405180910390f35b34801561046b57600080fd5b506104746110f6565b005b34801561048257600080fd5b5061048b61117e565b6040516104989190612cf5565b60405180910390f35b3480156104ad57600080fd5b506104b6611184565b6040516104c39190612c5f565b60405180910390f35b3480156104d857600080fd5b506104e16111ae565b6040516104ee9190612b99565b60405180910390f35b34801561050357600080fd5b5061050c611240565b6040516105199190612ae5565b60405180910390f35b34801561052e57600080fd5b5061054960048036038101906105449190612f4d565b611253565b005b34801561055757600080fd5b50610572600480360381019061056d919061302e565b611269565b005b34801561058057600080fd5b5061059b600480360381019061059691906130b1565b6112cb565b6040516105a89190612cf5565b60405180910390f35b3480156105bd57600080fd5b506105d860048036038101906105d391906130b1565b6113d1565b005b3480156105e657600080fd5b5061060160048036038101906105fc9190612bf1565b611467565b60405161060e9190612b99565b60405180910390f35b34801561062357600080fd5b5061063e60048036038101906106399190612bf1565b6115b9565b005b34801561064c57600080fd5b50610667600480360381019061066291906130fa565b61163f565b6040516106749190612ae5565b60405180910390f35b610697600480360381019061069291906130b1565b6116d3565b6040516106a49190612cf5565b60405180910390f35b3480156106b957600080fd5b506106d460048036038101906106cf9190612ef4565b611934565b005b3480156106e257600080fd5b506106eb611a2c565b6040516106f89190612b99565b60405180910390f35b60007f80ac58cd000000000000000000000000000000000000000000000000000000007bffffffffffffffffffffffffffffffffffffffffffffffffffffffff1916827bffffffffffffffffffffffffffffffffffffffffffffffffffffffff191614806107cc57507f5b5e139f000000000000000000000000000000000000000000000000000000007bffffffffffffffffffffffffffffffffffffffffffffffffffffffff1916827bffffffffffffffffffffffffffffffffffffffffffffffffffffffff1916145b806107dc57506107db82611aba565b5b9050919050565b6060600080546107f290613169565b80601f016020809104026020016040519081016040528092919081815260200182805461081e90613169565b801561086b5780601f106108405761010080835404028352916020019161086b565b820191906000526020600020905b81548152906001019060200180831161084e57829003601f168201915b5050505050905090565b600061088082611b24565b6108bf576040517f08c379a00000000000000000000000000000000000000000000000000000000081526004016108b69061320d565b60405180910390fd5b6004600083815260200190815260200160002060009054906101000a900473ffffffffffffffffffffffffffffffffffffffff169050919050565b600061090582610f8c565b90508073ffffffffffffffffffffffffffffffffffffffff168373ffffffffffffffffffffffffffffffffffffffff161415610976576040517f08c379a000000000000000000000000000000000000000000000000000000000815260040161096d9061329f565b60405180910390fd5b8073ffffffffffffffffffffffffffffffffffffffff16610995611b90565b73ffffffffffffffffffffffffffffffffffffffff1614806109c457506109c3816109be611b90565b61163f565b5b610a03576040517f08c379a00000000000000000000000000000000000000000000000000000000081526004016109fa90613331565b60405180910390fd5b610a0d8383611b98565b505050565b600b5481565b6000610a246009611c51565b610a2e6008611c51565b610a389190613380565b905090565b6000610a47611b90565b73ffffffffffffffffffffffffffffffffffffffff16610a65611184565b73ffffffffffffffffffffffffffffffffffffffff1614610abb576040517f08c379a0000000000000000000000000000000000000000000000000000000008152600401610ab290613422565b60405180910390fd5b610ac483611c5f565b610b03576040517f08c379a0000000000000000000000000000000000000000000000000000000008152600401610afa9061348e565b60405180910390fd5b600b835110610b47576040517f08c379a0000000000000000000000000000000000000000000000000000000008152600401610b3e906134fa565b60405180910390fd5b6000600e84604051610b599190613556565b90815260200160405180910390205414610ba8576040517f08c379a0000000000000000000000000000000000000000000000000000000008152600401610b9f906135b9565b60405180910390fd5b601e610bb46009611c51565b10610bf4576040517f08c379a0000000000000000000000000000000000000000000000000000000008152600401610beb90613625565b60405180910390fd5b6000610c006009611c51565b600a54610c0d9190613645565b9050610c196009611d1f565b610c238382611d35565b80600e85604051610c349190613556565b90815260200160405180910390208190555083600f60008381526020019081526020016000209080519060200190610c6d92919061298e565b508091505092915050565b610c89610c83611b90565b82611f03565b610cc8576040517f08c379a0000000000000000000000000000000000000000000000000000000008152600401610cbf906136eb565b60405180910390fd5b610cd3838383611fe1565b505050565b610ce0611b90565b73ffffffffffffffffffffffffffffffffffffffff16610cfe611184565b73ffffffffffffffffffffffffffffffffffffffff1614610d54576040517f08c379a0000000000000000000000000000000000000000000000000000000008152600401610d4b90613422565b60405180910390fd5b600d60009054906101000a900460ff1615600d60006101000a81548160ff021916908315150217905550565b610d88611b90565b73ffffffffffffffffffffffffffffffffffffffff16610da6611184565b73ffffffffffffffffffffffffffffffffffffffff1614610dfc576040517f08c379a0000000000000000000000000000000000000000000000000000000008152600401610df390613422565b60405180910390fd5b60004790503373ffffffffffffffffffffffffffffffffffffffff166108fc829081150290604051600060405180830381858888f19350505050158015610e47573d6000803e3d6000fd5b5050565b610e6683838360405180602001604052806000815250611269565b505050565b6060610e75611b90565b73ffffffffffffffffffffffffffffffffffffffff16610e93611184565b73ffffffffffffffffffffffffffffffffffffffff1614610ee9576040517f08c379a0000000000000000000000000000000000000000000000000000000008152600401610ee090613422565b60405180910390fd5b600f60008381526020019081526020016000208054610f0790613169565b80601f0160208091040260200160405190810160405280929190818152602001828054610f3390613169565b8015610f805780601f10610f5557610100808354040283529160200191610f80565b820191906000526020600020905b815481529060010190602001808311610f6357829003601f168201915b50505050509050919050565b6000806002600084815260200190815260200160002060009054906101000a900473ffffffffffffffffffffffffffffffffffffffff169050600073ffffffffffffffffffffffffffffffffffffffff168173ffffffffffffffffffffffffffffffffffffffff161415611035576040517f08c379a000000000000000000000000000000000000000000000000000000000815260040161102c9061377d565b60405180910390fd5b80915050919050565b60008073ffffffffffffffffffffffffffffffffffffffff168273ffffffffffffffffffffffffffffffffffffffff1614156110af576040517f08c379a00000000000000000000000000000000000000000000000000000000081526004016110a69061380f565b60405180910390fd5b600360008373ffffffffffffffffffffffffffffffffffffffff1673ffffffffffffffffffffffffffffffffffffffff168152602001908152602001600020549050919050565b6110fe611b90565b73ffffffffffffffffffffffffffffffffffffffff1661111c611184565b73ffffffffffffffffffffffffffffffffffffffff1614611172576040517f08c379a000000000000000000000000000000000000000000000000000000000815260040161116990613422565b60405180910390fd5b61117c600061223d565b565b600a5481565b6000600760009054906101000a900473ffffffffffffffffffffffffffffffffffffffff16905090565b6060600180546111bd90613169565b80601f01602080910402602001604051908101604052809291908181526020018280546111e990613169565b80156112365780601f1061120b57610100808354040283529160200191611236565b820191906000526020600020905b81548152906001019060200180831161121957829003601f168201915b5050505050905090565b600d60009054906101000a900460ff1681565b61126561125e611b90565b8383612303565b5050565b61127a611274611b90565b83611f03565b6112b9576040517f08c379a00000000000000000000000000000000000000000000000000000000081526004016112b0906136eb565b60405180910390fd5b6112c584848484612470565b50505050565b60006112d5611b90565b73ffffffffffffffffffffffffffffffffffffffff166112f3611184565b73ffffffffffffffffffffffffffffffffffffffff1614611349576040517f08c379a000000000000000000000000000000000000000000000000000000000815260040161134090613422565b60405180910390fd5b6000600e8360405161135b9190613556565b90815260200160405180910390205414156113ab576040517f08c379a00000000000000000000000000000000000000000000000000000000081526004016113a29061387b565b60405180910390fd5b600e826040516113bb9190613556565b9081526020016040518091039020549050919050565b6113d9611b90565b73ffffffffffffffffffffffffffffffffffffffff166113f7611184565b73ffffffffffffffffffffffffffffffffffffffff161461144d576040517f08c379a000000000000000000000000000000000000000000000000000000000815260040161144490613422565b60405180910390fd5b80600c908051906020019061146392919061298e565b5050565b606061147282611b24565b6114b1576040517f08c379a00000000000000000000000000000000000000000000000000000000081526004016114a89061390d565b60405180910390fd5b60006006600084815260200190815260200160002080546114d190613169565b80601f01602080910402602001604051908101604052809291908181526020018280546114fd90613169565b801561154a5780601f1061151f5761010080835404028352916020019161154a565b820191906000526020600020905b81548152906001019060200180831161152d57829003601f168201915b50505050509050600061155b6124cc565b90506000815114156115715781925050506115b4565b6000825111156115a657808260405160200161158e92919061392d565b604051602081830303815290604052925050506115b4565b6115af8461255e565b925050505b919050565b6115c1611b90565b73ffffffffffffffffffffffffffffffffffffffff166115df611184565b73ffffffffffffffffffffffffffffffffffffffff1614611635576040517f08c379a000000000000000000000000000000000000000000000000000000000815260040161162c90613422565b60405180910390fd5b80600b8190555050565b6000600560008473ffffffffffffffffffffffffffffffffffffffff1673ffffffffffffffffffffffffffffffffffffffff16815260200190815260200160002060008373ffffffffffffffffffffffffffffffffffffffff1673ffffffffffffffffffffffffffffffffffffffff16815260200190815260200160002060009054906101000a900460ff16905092915050565b6000600d60009054906101000a900460ff16611724576040517f08c379a000000000000000000000000000000000000000000000000000000000815260040161171b9061399d565b60405180910390fd5b666a94d74f43000034101561176e576040517f08c379a000000000000000000000000000000000000000000000000000000000815260040161176590613a2f565b60405180910390fd5b61177782611c5f565b6117b6576040517f08c379a00000000000000000000000000000000000000000000000000000000081526004016117ad90613ac1565b60405180910390fd5b600b8251106117fa576040517f08c379a00000000000000000000000000000000000000000000000000000000081526004016117f190613b2d565b60405180910390fd5b6000600e8360405161180c9190613556565b9081526020016040518091039020541461185b576040517f08c379a000000000000000000000000000000000000000000000000000000000815260040161185290613b99565b60405180910390fd5b600a546118686008611c51565b10801561187f5750600b5461187d6008611c51565b105b6118be576040517f08c379a00000000000000000000000000000000000000000000000000000000081526004016118b590613c05565b60405180910390fd5b6118c86008611d1f565b60006118d46008611c51565b90506118e03382612605565b80600e846040516118f19190613556565b90815260200160405180910390208190555082600f6000838152602001908152602001600020908051906020019061192a92919061298e565b5080915050919050565b61193c611b90565b73ffffffffffffffffffffffffffffffffffffffff1661195a611184565b73ffffffffffffffffffffffffffffffffffffffff16146119b0576040517f08c379a00000000000000000000000000000000000000000000000000000000081526004016119a790613422565b60405180910390fd5b600073ffffffffffffffffffffffffffffffffffffffff168173ffffffffffffffffffffffffffffffffffffffff161415611a20576040517f08c379a0000000000000000000000000000000000000000000000000000000008152600401611a1790613c97565b60405180910390fd5b611a298161223d565b50565b600c8054611a3990613169565b80601f0160208091040260200160405190810160405280929190818152602001828054611a6590613169565b8015611ab25780601f10611a8757610100808354040283529160200191611ab2565b820191906000526020600020905b815481529060010190602001808311611a9557829003601f168201915b505050505081565b60007f01ffc9a7000000000000000000000000000000000000000000000000000000007bffffffffffffffffffffffffffffffffffffffffffffffffffffffff1916827bffffffffffffffffffffffffffffffffffffffffffffffffffffffff1916149050919050565b60008073ffffffffffffffffffffffffffffffffffffffff166002600084815260200190815260200160002060009054906101000a900473ffffffffffffffffffffffffffffffffffffffff1673ffffffffffffffffffffffffffffffffffffffff1614159050919050565b600033905090565b816004600083815260200190815260200160002060006101000a81548173ffffffffffffffffffffffffffffffffffffffff021916908373ffffffffffffffffffffffffffffffffffffffff160217905550808273ffffffffffffffffffffffffffffffffffffffff16611c0b83610f8c565b73ffffffffffffffffffffffffffffffffffffffff167f8c5be1e5ebec7d5bd14f71427d1e84f3dd0314c0f7b2291e5b200ac8c7c3b92560405160405180910390a45050565b600081600001549050919050565b60008082905060005b8151811015611d13576000828281518110611c8657611c85613cb7565b5b602001015160f81c60f81b9050606160f81b817effffffffffffffffffffffffffffffffffffffffffffffffffffffffffffff191610158015611cef5750607a60f81b817effffffffffffffffffffffffffffffffffffffffffffffffffffffffffffff191611155b611cff5760009350505050611d1a565b508080611d0b90613ce6565b915050611c68565b5060019150505b919050565b6001816000016000828254019250508190555050565b600073ffffffffffffffffffffffffffffffffffffffff168273ffffffffffffffffffffffffffffffffffffffff161415611da5576040517f08c379a0000000000000000000000000000000000000000000000000000000008152600401611d9c90613d7b565b60405180910390fd5b611dae81611b24565b15611dee576040517f08c379a0000000000000000000000000000000000000000000000000000000008152600401611de590613de7565b60405180910390fd5b611dfa60008383612623565b6001600360008473ffffffffffffffffffffffffffffffffffffffff1673ffffffffffffffffffffffffffffffffffffffff1681526020019081526020016000206000828254611e4a9190613380565b92505081905550816002600083815260200190815260200160002060006101000a81548173ffffffffffffffffffffffffffffffffffffffff021916908373ffffffffffffffffffffffffffffffffffffffff160217905550808273ffffffffffffffffffffffffffffffffffffffff16600073ffffffffffffffffffffffffffffffffffffffff167fddf252ad1be2c89b69c2b068fc378daa952ba7f163c4a11628f55a4df523b3ef60405160405180910390a45050565b6000611f0e82611b24565b611f4d576040517f08c379a0000000000000000000000000000000000000000000000000000000008152600401611f4490613e79565b60405180910390fd5b6000611f5883610f8c565b90508073ffffffffffffffffffffffffffffffffffffffff168473ffffffffffffffffffffffffffffffffffffffff161480611fc757508373ffffffffffffffffffffffffffffffffffffffff16611faf84610875565b73ffffffffffffffffffffffffffffffffffffffff16145b80611fd85750611fd7818561163f565b5b91505092915050565b8273ffffffffffffffffffffffffffffffffffffffff1661200182610f8c565b73ffffffffffffffffffffffffffffffffffffffff1614612057576040517f08c379a000000000000000000000000000000000000000000000000000000000815260040161204e90613f0b565b60405180910390fd5b600073ffffffffffffffffffffffffffffffffffffffff168273ffffffffffffffffffffffffffffffffffffffff1614156120c7576040517f08c379a00000000000000000000000000000000000000000000000000000000081526004016120be90613f9d565b60405180910390fd5b6120d2838383612623565b6120dd600082611b98565b6001600360008573ffffffffffffffffffffffffffffffffffffffff1673ffffffffffffffffffffffffffffffffffffffff168152602001908152602001600020600082825461212d9190613645565b925050819055506001600360008473ffffffffffffffffffffffffffffffffffffffff1673ffffffffffffffffffffffffffffffffffffffff16815260200190815260200160002060008282546121849190613380565b92505081905550816002600083815260200190815260200160002060006101000a81548173ffffffffffffffffffffffffffffffffffffffff021916908373ffffffffffffffffffffffffffffffffffffffff160217905550808273ffffffffffffffffffffffffffffffffffffffff168473ffffffffffffffffffffffffffffffffffffffff167fddf252ad1be2c89b69c2b068fc378daa952ba7f163c4a11628f55a4df523b3ef60405160405180910390a4505050565b6000600760009054906101000a900473ffffffffffffffffffffffffffffffffffffffff16905081600760006101000a81548173ffffffffffffffffffffffffffffffffffffffff021916908373ffffffffffffffffffffffffffffffffffffffff1602179055508173ffffffffffffffffffffffffffffffffffffffff168173ffffffffffffffffffffffffffffffffffffffff167f8be0079c531659141344cd1fd0a4f28419497f9722a3daafe3b4186f6b6457e060405160405180910390a35050565b8173ffffffffffffffffffffffffffffffffffffffff168373ffffffffffffffffffffffffffffffffffffffff161415612372576040517f08c379a000000000000000000000000000000000000000000000000000000000815260040161236990614009565b60405180910390fd5b80600560008573ffffffffffffffffffffffffffffffffffffffff1673ffffffffffffffffffffffffffffffffffffffff16815260200190815260200160002060008473ffffffffffffffffffffffffffffffffffffffff1673ffffffffffffffffffffffffffffffffffffffff16815260200190815260200160002060006101000a81548160ff0219169083151502179055508173ffffffffffffffffffffffffffffffffffffffff168373ffffffffffffffffffffffffffffffffffffffff167f17307eab39ab6107e8899845ad3d59bd9653f200f220920489ca2b5937696c31836040516124639190612ae5565b60405180910390a3505050565b61247b848484611fe1565b61248784848484612628565b6124c6576040517f08c379a00000000000000000000000000000000000000000000000000000000081526004016124bd9061409b565b60405180910390fd5b50505050565b6060600c80546124db90613169565b80601f016020809104026020016040519081016040528092919081815260200182805461250790613169565b80156125545780601f1061252957610100808354040283529160200191612554565b820191906000526020600020905b81548152906001019060200180831161253757829003601f168201915b5050505050905090565b606061256982611b24565b6125a8576040517f08c379a000000000000000000000000000000000000000000000000000000000815260040161259f9061412d565b60405180910390fd5b60006125b26124cc565b905060008151116125d257604051806020016040528060008152506125fd565b806125dc846127bf565b6040516020016125ed92919061392d565b6040516020818303038152906040525b915050919050565b61261f828260405180602001604052806000815250612920565b5050565b505050565b60006126498473ffffffffffffffffffffffffffffffffffffffff1661297b565b156127b2578373ffffffffffffffffffffffffffffffffffffffff1663150b7a02612672611b90565b8786866040518563ffffffff1660e01b815260040161269494939291906141a2565b602060405180830381600087803b1580156126ae57600080fd5b505af19250505080156126df57506040513d601f19601f820116820180604052508101906126dc9190614203565b60015b612762573d806000811461270f576040519150601f19603f3d011682016040523d82523d6000602084013e612714565b606091505b5060008151141561275a576040517f08c379a00000000000000000000000000000000000000000000000000000000081526004016127519061409b565b60405180910390fd5b805181602001fd5b63150b7a0260e01b7bffffffffffffffffffffffffffffffffffffffffffffffffffffffff1916817bffffffffffffffffffffffffffffffffffffffffffffffffffffffff1916149150506127b7565b600190505b949350505050565b60606000821415612807576040518060400160405280600181526020017f3000000000000000000000000000000000000000000000000000000000000000815250905061291b565b600082905060005b6000821461283957808061282290613ce6565b915050600a82612832919061425f565b915061280f565b60008167ffffffffffffffff81111561285557612854612d1a565b5b6040519080825280601f01601f1916602001820160405280156128875781602001600182028036833780820191505090505b5090505b60008514612914576001826128a09190613645565b9150600a856128af9190614290565b60306128bb9190613380565b60f81b8183815181106128d1576128d0613cb7565b5b60200101907effffffffffffffffffffffffffffffffffffffffffffffffffffffffffffff1916908160001a905350600a8561290d919061425f565b945061288b565b8093505050505b919050565b61292a8383611d35565b6129376000848484612628565b612976576040517f08c379a000000000000000000000000000000000000000000000000000000000815260040161296d9061409b565b60405180910390fd5b505050565b600080823b905060008111915050919050565b82805461299a90613169565b90600052602060002090601f0160209004810192826129bc5760008555612a03565b82601f106129d557805160ff1916838001178555612a03565b82800160010185558215612a03579182015b82811115612a025782518255916020019190600101906129e7565b5b509050612a109190612a14565b5090565b5b80821115612a2d576000816000905550600101612a15565b5090565b6000604051905090565b600080fd5b600080fd5b60007fffffffff0000000000000000000000000000000000000000000000000000000082169050919050565b612a7a81612a45565b8114612a8557600080fd5b50565b600081359050612a9781612a71565b92915050565b600060208284031215612ab357612ab2612a3b565b5b6000612ac184828501612a88565b91505092915050565b60008115159050919050565b612adf81612aca565b82525050565b6000602082019050612afa6000830184612ad6565b92915050565b600081519050919050565b600082825260208201905092915050565b60005b83811015612b3a578082015181840152602081019050612b1f565b83811115612b49576000848401525b50505050565b6000601f19601f8301169050919050565b6000612b6b82612b00565b612b758185612b0b565b9350612b85818560208601612b1c565b612b8e81612b4f565b840191505092915050565b60006020820190508181036000830152612bb38184612b60565b905092915050565b6000819050919050565b612bce81612bbb565b8114612bd957600080fd5b50565b600081359050612beb81612bc5565b92915050565b600060208284031215612c0757612c06612a3b565b5b6000612c1584828501612bdc565b91505092915050565b600073ffffffffffffffffffffffffffffffffffffffff82169050919050565b6000612c4982612c1e565b9050919050565b612c5981612c3e565b82525050565b6000602082019050612c746000830184612c50565b92915050565b612c8381612c3e565b8114612c8e57600080fd5b50565b600081359050612ca081612c7a565b92915050565b60008060408385031215612cbd57612cbc612a3b565b5b6000612ccb85828601612c91565b9250506020612cdc85828601612bdc565b9150509250929050565b612cef81612bbb565b82525050565b6000602082019050612d0a6000830184612ce6565b92915050565b600080fd5b600080fd5b7f4e487b7100000000000000000000000000000000000000000000000000000000600052604160045260246000fd5b612d5282612b4f565b810181811067ffffffffffffffff82111715612d7157612d70612d1a565b5b80604052505050565b6000612d84612a31565b9050612d908282612d49565b919050565b600067ffffffffffffffff821115612db057612daf612d1a565b5b612db982612b4f565b9050602081019050919050565b82818337600083830152505050565b6000612de8612de384612d95565b612d7a565b905082815260208101848484011115612e0457612e03612d15565b5b612e0f848285612dc6565b509392505050565b600082601f830112612e2c57612e2b612d10565b5b8135612e3c848260208601612dd5565b91505092915050565b60008060408385031215612e5c57612e5b612a3b565b5b600083013567ffffffffffffffff811115612e7a57612e79612a40565b5b612e8685828601612e17565b9250506020612e9785828601612c91565b9150509250929050565b600080600060608486031215612eba57612eb9612a3b565b5b6000612ec886828701612c91565b9350506020612ed986828701612c91565b9250506040612eea86828701612bdc565b9150509250925092565b600060208284031215612f0a57612f09612a3b565b5b6000612f1884828501612c91565b91505092915050565b612f2a81612aca565b8114612f3557600080fd5b50565b600081359050612f4781612f21565b92915050565b60008060408385031215612f6457612f63612a3b565b5b6000612f7285828601612c91565b9250506020612f8385828601612f38565b9150509250929050565b600067ffffffffffffffff821115612fa857612fa7612d1a565b5b612fb182612b4f565b9050602081019050919050565b6000612fd1612fcc84612f8d565b612d7a565b905082815260208101848484011115612fed57612fec612d15565b5b612ff8848285612dc6565b509392505050565b600082601f83011261301557613014612d10565b5b8135613025848260208601612fbe565b91505092915050565b6000806000806080858703121561304857613047612a3b565b5b600061305687828801612c91565b945050602061306787828801612c91565b935050604061307887828801612bdc565b925050606085013567ffffffffffffffff81111561309957613098612a40565b5b6130a587828801613000565b91505092959194509250565b6000602082840312156130c7576130c6612a3b565b5b600082013567ffffffffffffffff8111156130e5576130e4612a40565b5b6130f184828501612e17565b91505092915050565b6000806040838503121561311157613110612a3b565b5b600061311f85828601612c91565b925050602061313085828601612c91565b9150509250929050565b7f4e487b7100000000000000000000000000000000000000000000000000000000600052602260045260246000fd5b6000600282049050600182168061318157607f821691505b602082108114156131955761319461313a565b5b50919050565b7f4552433732313a20617070726f76656420717565727920666f72206e6f6e657860008201527f697374656e7420746f6b656e0000000000000000000000000000000000000000602082015250565b60006131f7602c83612b0b565b91506132028261319b565b604082019050919050565b60006020820190508181036000830152613226816131ea565b9050919050565b7f4552433732313a20617070726f76616c20746f2063757272656e74206f776e6560008201527f7200000000000000000000000000000000000000000000000000000000000000602082015250565b6000613289602183612b0b565b91506132948261322d565b604082019050919050565b600060208201905081810360008301526132b88161327c565b9050919050565b7f4552433732313a20617070726f76652063616c6c6572206973206e6f74206f7760008201527f6e6572206e6f7220617070726f76656420666f7220616c6c0000000000000000602082015250565b600061331b603883612b0b565b9150613326826132bf565b604082019050919050565b6000602082019050818103600083015261334a8161330e565b9050919050565b7f4e487b7100000000000000000000000000000000000000000000000000000000600052601160045260246000fd5b600061338b82612bbb565b915061339683612bbb565b9250827fffffffffffffffffffffffffffffffffffffffffffffffffffffffffffffffff038211156133cb576133ca613351565b5b828201905092915050565b7f4f776e61626c653a2063616c6c6572206973206e6f7420746865206f776e6572600082015250565b600061340c602083612b0b565b9150613417826133d6565b602082019050919050565b6000602082019050818103600083015261343b816133ff565b9050919050565b7f56616c69646974792e0000000000000000000000000000000000000000000000600082015250565b6000613478600983612b0b565b915061348382613442565b602082019050919050565b600060208201905081810360008301526134a78161346b565b9050919050565b7f4c656e6774682e00000000000000000000000000000000000000000000000000600082015250565b60006134e4600783612b0b565b91506134ef826134ae565b602082019050919050565b60006020820190508181036000830152613513816134d7565b9050919050565b600081905092915050565b600061353082612b00565b61353a818561351a565b935061354a818560208601612b1c565b80840191505092915050565b60006135628284613525565b915081905092915050565b7f54616b656e2e0000000000000000000000000000000000000000000000000000600082015250565b60006135a3600683612b0b565b91506135ae8261356d565b602082019050919050565b600060208201905081810360008301526135d281613596565b9050919050565b7f446972747954686972747920636c61696d65642e000000000000000000000000600082015250565b600061360f601483612b0b565b915061361a826135d9565b602082019050919050565b6000602082019050818103600083015261363e81613602565b9050919050565b600061365082612bbb565b915061365b83612bbb565b92508282101561366e5761366d613351565b5b828203905092915050565b7f4552433732313a207472616e736665722063616c6c6572206973206e6f74206f60008201527f776e6572206e6f7220617070726f766564000000000000000000000000000000602082015250565b60006136d5603183612b0b565b91506136e082613679565b604082019050919050565b60006020820190508181036000830152613704816136c8565b9050919050565b7f4552433732313a206f776e657220717565727920666f72206e6f6e657869737460008201527f656e7420746f6b656e0000000000000000000000000000000000000000000000602082015250565b6000613767602983612b0b565b91506137728261370b565b604082019050919050565b600060208201905081810360008301526137968161375a565b9050919050565b7f4552433732313a2062616c616e636520717565727920666f7220746865207a6560008201527f726f206164647265737300000000000000000000000000000000000000000000602082015250565b60006137f9602a83612b0b565b91506138048261379d565b604082019050919050565b60006020820190508181036000830152613828816137ec565b9050919050565b7f4572726f723a20706872617365207761736e2774206d696e7465642e00000000600082015250565b6000613865601c83612b0b565b91506138708261382f565b602082019050919050565b6000602082019050818103600083015261389481613858565b9050919050565b7f45524337323155524953746f726167653a2055524920717565727920666f722060008201527f6e6f6e6578697374656e7420746f6b656e000000000000000000000000000000602082015250565b60006138f7603183612b0b565b91506139028261389b565b604082019050919050565b60006020820190508181036000830152613926816138ea565b9050919050565b60006139398285613525565b91506139458284613525565b91508190509392505050565b7f53616c6520697320636c6f7365642c2062616279210000000000000000000000600082015250565b6000613987601583612b0b565b915061399282613951565b602082019050919050565b600060208201905081810360008301526139b68161397a565b9050919050565b7f4e6f7420656e6f75676820457468657265756d2028302e30332045544820526560008201527f7175697265642920746f206d696e742e00000000000000000000000000000000602082015250565b6000613a19603083612b0b565b9150613a24826139bd565b604082019050919050565b60006020820190508181036000830152613a4881613a0c565b9050919050565b7f496e76616c6964207068726173652e204c6f7765726361736520612d7a206f6e60008201527f6c792e0000000000000000000000000000000000000000000000000000000000602082015250565b6000613aab602383612b0b565b9150613ab682613a4f565b604082019050919050565b60006020820190508181036000830152613ada81613a9e565b9050919050565b7f50687261736520697320746f6f206c6f6e672e00000000000000000000000000600082015250565b6000613b17601383612b0b565b9150613b2282613ae1565b602082019050919050565b60006020820190508181036000830152613b4681613b0a565b9050919050565b7f486f7720756e6f726967696e616c3b20616c726561647920636c61696d65642e600082015250565b6000613b83602083612b0b565b9150613b8e82613b4d565b602082019050919050565b60006020820190508181036000830152613bb281613b76565b9050919050565b7f536f72727920666f6c6b733a206173736d61696c20736f6c64206f7574210000600082015250565b6000613bef601e83612b0b565b9150613bfa82613bb9565b602082019050919050565b60006020820190508181036000830152613c1e81613be2565b9050919050565b7f4f776e61626c653a206e6577206f776e657220697320746865207a65726f206160008201527f6464726573730000000000000000000000000000000000000000000000000000602082015250565b6000613c81602683612b0b565b9150613c8c82613c25565b604082019050919050565b60006020820190508181036000830152613cb081613c74565b9050919050565b7f4e487b7100000000000000000000000000000000000000000000000000000000600052603260045260246000fd5b6000613cf182612bbb565b91507fffffffffffffffffffffffffffffffffffffffffffffffffffffffffffffffff821415613d2457613d23613351565b5b600182019050919050565b7f4552433732313a206d696e7420746f20746865207a65726f2061646472657373600082015250565b6000613d65602083612b0b565b9150613d7082613d2f565b602082019050919050565b60006020820190508181036000830152613d9481613d58565b9050919050565b7f4552433732313a20746f6b656e20616c7265616479206d696e74656400000000600082015250565b6000613dd1601c83612b0b565b9150613ddc82613d9b565b602082019050919050565b60006020820190508181036000830152613e0081613dc4565b9050919050565b7f4552433732313a206f70657261746f7220717565727920666f72206e6f6e657860008201527f697374656e7420746f6b656e0000000000000000000000000000000000000000602082015250565b6000613e63602c83612b0b565b9150613e6e82613e07565b604082019050919050565b60006020820190508181036000830152613e9281613e56565b9050919050565b7f4552433732313a207472616e73666572206f6620746f6b656e2074686174206960008201527f73206e6f74206f776e0000000000000000000000000000000000000000000000602082015250565b6000613ef5602983612b0b565b9150613f0082613e99565b604082019050919050565b60006020820190508181036000830152613f2481613ee8565b9050919050565b7f4552433732313a207472616e7366657220746f20746865207a65726f2061646460008201527f7265737300000000000000000000000000000000000000000000000000000000602082015250565b6000613f87602483612b0b565b9150613f9282613f2b565b604082019050919050565b60006020820190508181036000830152613fb681613f7a565b9050919050565b7f4552433732313a20617070726f766520746f2063616c6c657200000000000000600082015250565b6000613ff3601983612b0b565b9150613ffe82613fbd565b602082019050919050565b6000602082019050818103600083015261402281613fe6565b9050919050565b7f4552433732313a207472616e7366657220746f206e6f6e20455243373231526560008201527f63656976657220696d706c656d656e7465720000000000000000000000000000602082015250565b6000614085603283612b0b565b915061409082614029565b604082019050919050565b600060208201905081810360008301526140b481614078565b9050919050565b7f4552433732314d657461646174613a2055524920717565727920666f72206e6f60008201527f6e6578697374656e7420746f6b656e0000000000000000000000000000000000602082015250565b6000614117602f83612b0b565b9150614122826140bb565b604082019050919050565b600060208201905081810360008301526141468161410a565b9050919050565b600081519050919050565b600082825260208201905092915050565b60006141748261414d565b61417e8185614158565b935061418e818560208601612b1c565b61419781612b4f565b840191505092915050565b60006080820190506141b76000830187612c50565b6141c46020830186612c50565b6141d16040830185612ce6565b81810360608301526141e38184614169565b905095945050505050565b6000815190506141fd81612a71565b92915050565b60006020828403121561421957614218612a3b565b5b6000614227848285016141ee565b91505092915050565b7f4e487b7100000000000000000000000000000000000000000000000000000000600052601260045260246000fd5b600061426a82612bbb565b915061427583612bbb565b92508261428557614284614230565b5b828204905092915050565b600061429b82612bbb565b91506142a683612bbb565b9250826142b6576142b5614230565b5b82820690509291505056fea26469706673582212207d93cf2f37b15fb25d37b9c202258f71a20c0ac6550f5820d8910c2049e4b55764736f6c6343000809003368747470733a2f2f6d61696c2e6173732e636f6d2f6173736d61696c5f6d657461646174612f",
  "immutableReferences": {},
  "source": "/* This is a 69-line contract between the good folks at ass.com and you.\r\nassmail: an ERC721 token that entitles you to an \"@ass.com\" email address of your choosing.\r\nMint in good humor and fun; hate and violence have no place at ass.com */\r\npragma solidity ^0.8.0; // SPDX-License-Identifier: MIT\r\nimport \"@openzeppelin/contracts/access/Ownable.sol\";\r\nimport \"@openzeppelin/contracts/token/ERC20/IERC20.sol\";\r\nimport \"@openzeppelin/contracts/token/ERC721/ERC721.sol\";\r\nimport \"@openzeppelin/contracts/token/ERC721/IERC721.sol\";\r\nimport \"@openzeppelin/contracts/token/ERC721/extensions/ERC721URIStorage.sol\";\r\nimport \"@openzeppelin/contracts/token/ERC721/extensions/IERC721Metadata.sol\";\r\nimport \"@openzeppelin/contracts/utils/Counters.sol\";\r\nimport \"@openzeppelin/contracts/utils/Strings.sol\";\r\nimport \"@openzeppelin/contracts/utils/math/SafeMath.sol\";\r\ncontract assonline is ERC721URIStorage, Ownable {\r\n\tusing SafeMath for uint256;\tusing Strings for string; using Counters for Counters.Counter; \r\n\tCounters.Counter private _tokenIds; Counters.Counter private _tokenIds_special;\r\n\r\n/***** 10,000 assmail NFTs available, each assigned a unique phrase. After sale, we'll move data to IPFS *****/\r\n\tuint256 public tokenSupply = 10000;\r\n\tuint256 public betaSupply = 100; // For beta testers and early birds.\r\n\tstring public BaseURI = \"https://mail.ass.com/assmail_metadata/\";\r\n\tbool public saleOpen = false;\r\n\tmapping (string => uint256) private tokenMap; mapping (uint256 => string) private phraseMap;\r\n\tmodifier openSale() {require(saleOpen,'Sale is closed, baby!');_;}\r\n\r\n/***** Our team's addresses ;) *****/\r\n\tconstructor() ERC721(\"Assmail\",\"ADC\") {tokenMap[\"tom\"]=11237; tokenMap[\"mrhouse\"]=10013; \r\n\ttokenMap[\"phattest\"]=10458; tokenMap[\"help\"]=11379;} \r\n\r\n/***** mint_assmail(phrase) is the \"phrase@ass.com\" accessible on ass.com *****/ \r\n\tfunction mint_assmail(string memory phrase) public payable openSale returns (uint256) {\r\n\t\trequire(msg.value >= 0.03 ether, 'Not enough Ethereum (0.03 ETH Required) to mint.');\r\n\t\trequire(_validatePhrase(phrase), 'Invalid phrase. Lowercase a-z only.');\r\n\t\trequire(bytes(phrase).length < 11, 'Phrase is too long.');\r\n\t\trequire(tokenMap[phrase] == 0, 'How unoriginal; already claimed.');\r\n\t\trequire(_tokenIds.current() < tokenSupply && _tokenIds.current() < betaSupply, 'Sorry folks: assmail sold out!');\r\n\t\t_tokenIds.increment(); uint256 tokenID = _tokenIds.current();\r\n\t\t_safeMint(msg.sender, tokenID);\r\n\t\ttokenMap[phrase] = tokenID;\tphraseMap[tokenID] = phrase;\r\n\t\treturn tokenID;}\r\n\r\n/***** DirtyThirty: the strange people who believed in us. Capped at 30, counting backwards *****/\r\n\tfunction mint_dirtythirty(string memory phrase, address receiver) public onlyOwner returns (uint256) {\r\n\t\trequire(_validatePhrase(phrase), 'Validity.');require(bytes(phrase).length < 11, 'Length.');\r\n\t\trequire(tokenMap[phrase] == 0, 'Taken.'); require(_tokenIds_special.current() < 30, 'DirtyThirty claimed.');\r\n\t\tuint256 tokenID = tokenSupply - _tokenIds_special.current();\r\n\t\t_tokenIds_special.increment(); _mint(receiver, tokenID);\r\n\t\ttokenMap[phrase] = tokenID; phraseMap[tokenID] = phrase; return tokenID;}\r\n\r\n/***** System only validates lowercase a-z *****/\r\n\tfunction _validatePhrase(string memory phrase) internal pure returns (bool) {\r\n\t\tbytes memory s = bytes(phrase);\r\n\t\t\tfor(uint i; i<s.length; i++){bytes1 char = s[i];\r\n\t\t\t\tif(!(char >= 0x61 && char <= 0x7A)) return false;}\r\n\t\treturn true;}\r\n\r\n/***** 'view' methods for administration *****/\r\n\tfunction totalSupply() public view returns (uint256) {return _tokenIds.current() + _tokenIds_special.current();}\r\n\tfunction _baseURI() internal view override returns (string memory) {return BaseURI;}\r\n\r\n/***** 'onlyOwner' methods for administration *****/\r\n\tfunction updateURI(string memory dropURI) external onlyOwner {BaseURI = dropURI;}\r\n\tfunction get_ID(string memory phrase) public view onlyOwner returns (uint256) {\r\n\t\trequire(tokenMap[phrase] != 0, \"Error: phrase wasn't minted.\"); return tokenMap[phrase];}\r\n\tfunction get_phrase(uint256 tokenID) public view onlyOwner returns (string memory) {return phraseMap[tokenID];}\r\n\tfunction toggle_sale() public onlyOwner{saleOpen = !saleOpen;}\r\n\tfunction raiseSoftLimit(uint256 newLimit) public onlyOwner{betaSupply = newLimit;}\r\n\tfunction withdraw() public onlyOwner {uint256 balance = address(this).balance; payable(msg.sender).transfer(balance);}\r\n}",
  "sourcePath": "C:\\Users\\PC\\Desktop\\RunSomeSol\\contracts\\assmail.sol",
  "compiler": {
    "name": "solc",
    "version": "0.8.9+commit.e5eed63a.Emscripten.clang"
  },
  "schemaVersion": "3.4.3",
  "updatedAt": "2022-02-14T14:19:40.547Z",
  "networkType": "ethereum",
  "devdoc": {
    "kind": "dev",
    "methods": {
      "approve(address,uint256)": {
        "details": "See {IERC721-approve}."
      },
      "balanceOf(address)": {
        "details": "See {IERC721-balanceOf}."
      },
      "getApproved(uint256)": {
        "details": "See {IERC721-getApproved}."
      },
      "isApprovedForAll(address,address)": {
        "details": "See {IERC721-isApprovedForAll}."
      },
      "name()": {
        "details": "See {IERC721Metadata-name}."
      },
      "owner()": {
        "details": "Returns the address of the current owner."
      },
      "ownerOf(uint256)": {
        "details": "See {IERC721-ownerOf}."
      },
      "renounceOwnership()": {
        "details": "Leaves the contract without owner. It will not be possible to call `onlyOwner` functions anymore. Can only be called by the current owner. NOTE: Renouncing ownership will leave the contract without an owner, thereby removing any functionality that is only available to the owner."
      },
      "safeTransferFrom(address,address,uint256)": {
        "details": "See {IERC721-safeTransferFrom}."
      },
      "safeTransferFrom(address,address,uint256,bytes)": {
        "details": "See {IERC721-safeTransferFrom}."
      },
      "setApprovalForAll(address,bool)": {
        "details": "See {IERC721-setApprovalForAll}."
      },
      "supportsInterface(bytes4)": {
        "details": "See {IERC165-supportsInterface}."
      },
      "symbol()": {
        "details": "See {IERC721Metadata-symbol}."
      },
      "tokenURI(uint256)": {
        "details": "See {IERC721Metadata-tokenURI}."
      },
      "transferFrom(address,address,uint256)": {
        "details": "See {IERC721-transferFrom}."
      },
      "transferOwnership(address)": {
        "details": "Transfers ownership of the contract to a new account (`newOwner`). Can only be called by the current owner."
      }
    },
    "version": 1
  },
  "userdoc": {
    "kind": "user",
    "methods": {},
    "version": 1
  }
}